:020000040800F2
:10000000580F002045010008A30D00082B0B000825
:10001000A10D0008E3040008852A00080000000084
:10002000000000000000000000000000711800083F
:10003000310500080000000071150008DD210008EE
:10004000872A00080515000869230008BB17000867
:100050007B080008251700086D08000871080008D3
:100060007308000875080008770800081B050008D9
:100070001D0500081F0500082105000823050008CC
:100080002505000827050008D1020008812A00087C
:10009000832A0008E5040008E7040008790800083E
:1000A0004924000859240008572400085524000852
:1000B0007124000895240008972400082F0B0008DD
:1000C0002D0B0008330B0008310B00086B180008DB
:1000D0006D180008FD290008FF290008012A000802
:1000E0006F080008B91700087F2A00089F2400083D
:1000F000A5240008A3240008A12400084503000843
:10010000A509000869180008992400086F1800085C
:10011000F9290008FB2900089B2400089D240008F9
:10012000290500082B0500082D0500082F050008EB
:10013000DFF80CD000F07CF80048004739380008A0
:10014000580F002000480047310100082DE9F04118
:100150000024061B254671F1000605DA012400275C
:10016000D0EB070067EB0101161E73F1000605DAFC
:100170000027D2EB0702012567EB030300F017F815
:1001800086460E4617469C46AC4204D00025D0EB6E
:10019000050E65EB010624B10020D2EB000760EBF1
:1001A000030C704631463A466346BDE8F0812DE9BE
:1001B000F05F0546002092469B46884606468146EB
:1001C00040241BE0284641464746224600F020F8DE
:1001D00053465A46C01A914110D31146184622463A
:1001E00000F038F82D1A67EB01084F46224601202F
:1001F000002100F02FF817EB00094E41201EA4F15A
:100200000104DFDC484631462A464346BDE8F09FFC
:10021000202A04DB203A21FA02F00021704721FA5B
:1002200002F3D040C2F120029140084319467047C2
:10023000064C074D06E0E06840F0010394E8070033
:1002400098471034AC42F6D3FFF776FF74410008AC
:1002500094410008202A04DB203A00FA02F1002031
:1002600070479140C2F1200320FA03F319439040F4
:10027000704770B58D1810F8014B14F0030201D1CE
:1002800010F8012B231106D110F8013B03E010F800
:10029000016B01F8016B521EF9D1ABB110F8012BC3
:1002A00004F00C048A1A0C2C03D0A2EB84129B1CC1
:1002B00008E010F8014BA2EB0422F8E712F8014B1A
:1002C00001F8014B5B1EF9D5A942D4D3002070BDC3
:1002D00010B5194C206810F0040F1CD06FF004000A
:1002E000206001F0C7FA002808BF10BD00F068FCCC
:1002F0001248007802280AD0032818BF10BD00F069
:1003000003FB0F48017841F01001017010BDBDE8FA
:10031000104000F035BA4FF4A071204600F05CF8B0
:10032000012818BF10BD00F05BFC2046BDE810405E
:10033000012100F008B8000000240140380000202E
:10034000020000207047C94301607047002981689E
:1003500002D041F0010101E021F00101816070470C
:100360000D4910B5411811D04FF48064A14210D04E
:10037000B1F5C05F0FD10121CC03204601F034F963
:100380002046BDE81040002101F02EB901214C02A9
:10039000F3E70121F1E710BD00DCFEBF0029816811
:1003A00002D041F4004101E021F400418160704736
:1003B000826822F4E0420A438260704701460020CE
:1003C0008968490700D5012070470246002012685D
:1003D0000A4200D00120704710B502460020546840
:1003E0000B0AC9B20C401168194202D0002C00D08F
:1003F000012010BD0844806A80B27047002A42681C
:10040000C9B201D00A4300E08A434260704700004D
:1004100010B542680E4B0C791A400B6842EA042270
:100420001343436082680B4B1A40D1E902432343D4
:100430004C7942EA440213438360C26A097C22F485
:100440007002491EC9B242EA0151C16210BD0000EA
:10045000FFFEF0FFFDF7F1FF70B5072609290AD965
:10046000C568A1F10A0404EB4404A640B543A340C7
:100470001D43C56007E0056901EB4104A640B54393
:10048000A3401D430561836BC3F30154121B921CEF
:1004900002EB82021F249440A34391400B438363E9
:1004A00070BD826B491E22F4401242EA0151816301
:1004B00070470029816802D041F4021101E021F463
:1004C000021181607047816841F0040181607047CA
:1004D00000210160017141718160C16001210174DD
:1004E0007047FEE77047704701B261F30F0244F6B0
:1004F000E6135943CB1701EB5341001444F6E613BE
:100500005843C31700EB5340C01300EBE1310844DC
:10051000404260F31F421046704770477047704773
:100520007047704770477047704770477047704713
:100530007047000010B500F043F8002801DA41428E
:1005400000E001461B4A89B2127800241A4B032AA4
:100550000BD09C70DC70194A197822F81100491CE4
:10056000C8B21870082815D015E041F288329142BF
:100570000DD9002801DA504200E01046D978491C14
:10058000C9B2D970642903D301219970E3E7DC7003
:100590009C70E0E71C700021084632F91040401CB6
:1005A00021440828F9D3C81701EB5070C010D88037
:1005B00010BD00003800002044000020300B002057
:1005C0002DE9F041254D00264FF08043687868B151
:1005D0006E7000202E81B3F92440298911B1B3F93E
:1005E00024402E81AC8000B2BDE8F0812889998C2E
:1005F0002A899F8C2E81B3F92440B5F808C0BCF13C
:10060000000F02D0B3F924402E81904201D0394628
:1006100010461A88D306114AB2F90420A1EB020150
:1006200003D56FF07C02504303E000EB4002C2EBC5
:10063000C01001EB00114FF4FA7041430A22A1FBF4
:100640000207CB1703FB0272002601FB06214FF4C1
:10065000FA623346FFF77AFDC4E700004400002049
:100660000020054A014622F81010401C0828FAD341
:100670000249012048707047300B002044000020E0
:1006800001488078704700004400002010B54FF00A
:10069000804001F0AAFF0449484300EB4000C11725
:1006A00000EB1140001410BD9BC420000148B0F9BC
:1006B000060070474400002070B5012188B008464C
:1006C00000F06EFF0121042000F082FF07A800F077
:1006D00024FA0320ADF81C0004258DF81F5007A94B
:1006E000264800F09DF91C208DF8180002208DF896
:1006F000190000248DF81A4001208DF81B0006A86F
:1007000000F066FB2E07304601F0FAFE684602F064
:100710002DF940F2CF70ADF80400ADF80040ADF80F
:100720000640ADF802406946304602F001F9002368
:100730001A460321304601F03DFF03A801F0ADFF4A
:100740000820ADF8140003A9304601F050FFADF8C1
:100750000C5003A9304601F04AFF0121304601F058
:10076000B3FE01221146304601F09FFFA620B0845F
:100770000121304601F0AEFE08B070BD0008014016
:100780002DE9F0412D4A10682D4F80074FF00303EB
:1007900051D5DFF8B0C04FF4A07E0021DCF80C008A
:1007A000294D401C294E2A4CCCF80C0070452FD8FE
:1007B00041F6F4425043B0FBFEF02880318001F056
:1007C000EFFA24490860FFF78FFE234908604FF4D1
:1007D000804100F099FE214F214A3860B7F900109E
:1007E000B6F9000000F058FE2080B7F902101D4A4B
:1007F000B5F9000000F050FE608000F0DFFF2068D7
:1008000001F006F818490860BDE8F04101F092B81F
:10081000CCF80C104FF0804CA620ACF8240061807E
:1008200021804FF47A7030802980106820F0020017
:100830001060FFF715FF3B70BDE8F081200000203D
:1008400038000020440000203A0000203C00002036
:100850003000002024000020280000202C00002070
:10086000F00A0020D00A00203400002070477047B2
:1008700070477047704770477047704704490A686F
:1008800022F010020A600A6802430A607047000002
:100890000020024004490A6802F038020A600A682F
:1008A00002430A60704700000020024010B5FFF7C5
:1008B000FDFE01460B480A4AB0F9000000F0ECFDCD
:1008C00009490880002048800A88081D028049885C
:1008D000418091B2054A118005494088088010BDC9
:1008E000100B00203E0000200C0000203C000020E7
:1008F0003A0000200349002008804880091F088032
:10090000488070471000002070B501F049FA164980
:100910000860FFF7E9FD154C2060FFF7B7FE22687D
:100920000146104600F0F0FD114E124D124A3060A3
:10093000B6F90010B5F9000000F0AEFD0F4C104AFA
:100940002080B6F90210B5F9020000F0A5FD608024
:1009500000F034FF206800F05BFF0A490860BDE842
:10096000704000F0E7BF00002400002028000020B5
:100970002C00002010000020F00A00203000002091
:10098000D00A002034000020034801880348018079
:1009900003490988418070473C0000201000002076
:1009A0003A0000207047000038B5012140F2FD30C8
:1009B00000F00EFE0121164800F0F2FD012115485D
:1009C00000F07CF81420ADF8000010208DF8030032
:1009D00003248DF8024069460F4800F021F84FF4D7
:1009E0008060ADF800008DF8024018200B4C8DF8A7
:1009F00003006946204600F013F8E114ADF800103A
:100A000004218DF803106946204600F009F838BD2E
:100A1000010004000002300000200140000C0140F1
:100A2000F0B5CC78002204F00F03E40601D58C78F1
:100A300023430C784FF00F0C14F0FF0F4FF0010E12
:100A40001AD005680E880EFA02F42640A6420FD18D
:100A500096000CFA06F725EA070703FA06F5CE78A2
:100A60003D43282E00D14461CE78482E00D1046148
:100A7000521C082AE6D305600A88FF2A1CD944685C
:100A8000002202F108060EFA06F50E882E40AE424C
:100A90000ED196000CFA06F7BC4303FA06F7CE789F
:100AA0003C43282E00D14561CE78482E00D1056107
:100AB000521C082AE5D34460F0BD0000F0B5104D8B
:100AC0006B68440D260184B2C0F30157B440C0F3F3
:100AD0000342032F05D0C0020AD503209040834370
:100AE00007E0686823F0706220F07060686002E0E0
:100AF000A34343F0706201B122436A60F0BD00007D
:100B0000000001400246002092680A4200D0012005
:100B1000704741617047016170474FF6FF71018076
:100B2000022181700421C1707047FEE77047704751
:100B3000704770470148007870470000400000206F
:100B4000F8B501214FF4FE7000F042FD6846FFF752
:100B5000E4FF0120ADF80000164D48248DF8034055
:100B600069462846FFF75CFF0221ADF800108DF8BA
:100B7000034069462846FFF753FFED140E4EADF8CB
:100B800000508DF8034069463046FFF749FF680082
:100B9000ADF8000028248DF8034069463046FFF781
:100BA0003FFFADF800508DF8034069460348FFF75A
:100BB00037FFF8BD0014014000100140001801404B
:100BC0000649B1F900004A88C0EB80101044C217F2
:100BD00000EB926080110880704700001400002034
:100BE000084845F2C831B0F90000884201DD012013
:100BF000704741F66B71884201DA0220704700208D
:100C00007047000014000020094988688A88C0EBFA
:100C1000C0201044C00A886041F63161884205D284
:100C200041F6E921884201D302480068002070475C
:100C3000140000202000002010B501F097FB244C88
:100C4000C0B32068C00506D5FFF7DEFF18B92068DD
:100C500020F4807020602068400506D5FFF7C0FFB3
:100C600018B9206820F4806020602068000506D54F
:100C7000FFF7B6FF18B9206820F4006020602068F4
:100C8000800509D54FF400711248FFF73BFF18B1FA
:100C9000206820F4007020602068400703D5206899
:100CA00020F0040020602068000703D5206820F0B1
:100CB00008002060FFF73EFF012806D1206840F6BB
:100CC0000C71084201D0002010BD012010BD0000B1
:100CD000200000200010014010B500F031F8FFF7AF
:100CE00009FEFFF7BDFC00F0D5FF0D480021018093
:100CF0004180006800F01EFE0A494FF47A700880B7
:100D0000042001F05BFB0121074801F0EEFB01F03C
:100D10005FFB0028FBD0BDE81040012000F0E4BDDF
:100D2000340000203C000020002C0140034800213A
:100D3000816043F699110180704700001400002083
:100D400003490020486103494861034948617047ED
:100D5000100B0020F00A0020D00A002010B5044635
:100D60004FF4167001F024FB0021094801F0BDFB8F
:100D700008490A6822430A600749072008700749A2
:100D80000F200870BDE81040002000F0ADBD00004D
:100D9000002C0140200000203800002043000020EB
:100DA000FEE7704708B500214FF0006000F058F8EA
:100DB00027208DF8000000208DF8010002208DF81A
:100DC000020001208DF80300684600F001F808BD1C
:100DD00070B50F25C2780178012652B31A4A1268FD
:100DE000447802F4E062C2F5E062120AC2F1040340
:100DF000D54082789C402A40224314018A07D30EB2
:100E000021F0030202F1E0229C40D2F80054FF21BD
:100E100099408D430C402543C2F80054007800F0FF
:100E20001F018E404009800000F1E020C0F8006101
:100E300070BD01F01F0086404809800000F1E020ED
:100E4000C0F8806170BD00000CED00E0024908436D
:100E500002490860704700000000FA050CED00E050
:100E6000024A1140014302480160704780FFFF1FA2
:100E700008ED00E00021017041708170C170704781
:100E800030B5124BFF251B6803F4E063C3F5E06344
:100E90001B0ADD40C3F10404A1402A400A431101AA
:100EA000032202EA9012C0F30120C0008140FF2318
:100EB0008340900000F1E02000F6185002689A4349
:100EC000026002680A43026030BD00000CED00E0E1
:100ED00070B5002505F1B000C0B2002100F0FAF9AC
:100EE0000021084600F0F6F90021102000F0F2F988
:100EF00000240121002000F0EDF9641CE4B2802CF4
:100F0000F7D36D1CEDB2082DE4D370BD2DE9F84385
:100F100000240121102000F05BFB4FF4E050ADF8FD
:100F2000000010266B4D8DF8036003278DF80270CA
:100F300069462846FFF774FD0121042000F048FBB4
:100F40004FF4C058ADF800808DF80360624E8DF804
:100F5000027069463046FFF763FD41463046FFF7B1
:100F6000DAFD4EF20100ADF8000048268DF803606E
:100F700069462846FFF754FD0120ADF800008DF8C2
:100F80000360564E69463046FFF74AFD0220ADF831
:100F9000000014208DF8030069463046FFF740FD3D
:100FA0002E1531462846FFF7B6FD40F6B83700202B
:100FB000641C401CC828FCDBBC42F8DB0024314622
:100FC0002846FFF7A6FD0020641C401CC828FCDB57
:100FD000BC42F8DB31462846FFF79DFD0021AE20DC
:100FE00000F078F90021084600F074F90021102083
:100FF00000F070F90021402000F06CF90021812000
:1010000000F068F90021CF2000F064F90021A12050
:1010100000F060F90021C82000F05CF90021A62052
:1010200000F058F90021A82000F054F900213F20D9
:1010300000F050F90021D32000F04CF900210846BF
:1010400000F048F90021D52000F044F9002180206B
:1010500000F040F90021D92000F03CF90021F120F6
:1010600000F038F90021DA2000F034F900211220D4
:1010700000F030F90021DB2000F02CF900214020A5
:1010800000F028F90021202000F024F9002102209E
:1010900000F020F900218D2000F01CF9002114201F
:1010A00000F018F90021A42000F014F90021A62076
:1010B00000F010F90021AF2000F00CF90021AF2062
:1010C00000F008F9FFF704FF0021084600F008F8D7
:1010D000BDE8F88300100140000801400014014001
:1010E00010B50446B031C8B2002100F0F3F810206A
:1010F00040EA1410002100F0EDF804F00F00BDE804
:10110000104040F00100002100F0E4B82DE9F0416A
:101110001E4615460F468046FFF7E2FF144800249E
:1011200000EB85154FF00101285D16B100F0D2F8F3
:1011300001E000F00FF9641CE4B2102CF2D37F1C24
:10114000F9B24046FFF7CCFF002405EB04004FF056
:10115000010190F8200016B100F0BCF801E000F0A9
:10116000F9F8641CE4B2102CEFD3BDE8F081000064
:10117000900000202DE9F041203A00240F468046DF
:10118000D5B27F2803D900208F1C8046FFB2394694
:10119000FFF7A6FF0E4E04EB05100121305C00F0B6
:1011A00099F8641CE4B2082CF5D37F1CF9B24046D0
:1011B000FFF796FF002404EB051030440121007A6C
:1011C00000F088F8641CE4B2082CF4D3BDE8F08188
:1011D000823B00082DE9F041203A00240F4680466A
:1011E000D5B27F2803D900208F1C8046FFB2394634
:1011F000FFF776FF0E4E04EB05100121305C00F086
:10120000A9F8641CE4B2082CF5D37F1CF9B240465F
:10121000FFF766FF002404EB051030440121007A3B
:1012200000F098F8641CE4B2082CF4D3BDE8F08117
:10123000823B00082DE9F0478046002708981D46AC
:1012400091468A463C46460821E0281B401EC1B212
:101250000A2002F013FBB9FBF0F00A21B0FBF1F217
:1012600001FB120027B9691E8C4201DA30B1012757
:101270003030C2B206FB0480C0B203E006FB04803B
:10128000C0B220225146FFF775FF641CE4B2AC42A5
:10129000DBD3BDE8F0872DE9F0411F4690460E46AE
:1012A0000446002510E03146204617B1FFF762FFE3
:1012B00001E0FFF78FFF0834E4B2782C02D9002454
:1012C000B61CF6B26D1CEDB218F80520002AEAD162
:1012D000BDE8F0812DE9F0471C4C0546A614002915
:1012E0003146204602D0FFF716FC01E0FFF711FC63
:1012F0004FF400673946A0462046FFF70AFCB14686
:101300003E46134F002431463846FFF702FC2806BC
:101310004946384602D5FFF7FEFB01E0FFF7F9FB2F
:1013200031463846FFF7F7FB6806641C050EE4B249
:10133000082CE8D3314644464046FFF7ECFB4946CB
:101340002046BDE8F047FFF7E6BB0000000801407B
:10135000001001402DE9F0471C4C0546A614002959
:101360003146204602D0FFF7D6FB01E0FFF7D1FB64
:101370004FF400673946A0462046FFF7CAFBB14646
:101380003E46134F002431463846FFF7C2FB28067D
:101390004946384602D5FFF7BCFB01E0FFF7BBFB2F
:1013A00031463846FFF7B7FB6806641C050EE4B209
:1013B000082CE8D3314644464046FFF7ACFB49468B
:1013C0002046BDE8F047FFF7A6BB0000000801403B
:1013D000001001402DE9F00FDFF8A8C04FF47A7338
:1013E000ACF8003040F242254FF48066058046801C
:1013F000B023838037016424C78004834FF40058EE
:10140000A0F81A800023DFF88090C36147F6FF7AC6
:10141000A0F80890A0F80AA04FF0604B4FEA8A3C71
:10142000C0F80CB0C0E904C318484B6103800D80BC
:101430004E804C208880CF800C83A1F81A80CB612D
:10144000A1F80890A1F80AA0C1E903BC1049212025
:1014500053610880C82010801020508094800101C2
:10146000D180138350834EF24F20D361108141F617
:10147000B15050810748D06040421061BDE8F00F84
:10148000704700003C0000200080FFFF3A00002071
:101490003E000020004FE2FF30B4401AB2F90010C5
:1014A00001FB00FCB2F90410002904BF00205061C8
:1014B00013D048435169C4170818136944EBE1710C
:1014C0004FEAE3741D1A8C4106DBD368DC17C51A9A
:1014D000A141A8BF506100DA53615088D388516997
:1014E0009CFBF0F091FBF3F10144B2F90A00884251
:1014F000DCBF30BC7047B2F908008842D8BF08B2E0
:1015000030BC70477047000060B50546084601F0E2
:1015100037FADFF858C029B2CCF80000BCF9002037
:10152000BCF902C001FB02F0C31700EB5340C61325
:101530002B1403FB0CF0C51701FB0CF14FEAE17C07
:1015400001EB5C414FEAE13C00EB554003FB02F14B
:10155000A6EBE035CA17204601EB524165F30F00B8
:101560000CEBE13161F31F4060BD0000080000207A
:1015700070470000034A516821F440410143516023
:101580007047000000100240044A0029516901D050
:10159000014300E0814351617047000000100240A8
:1015A000044A0029D16901D0014300E08143D1619F
:1015B0007047000000100240044A0029116901D060
:1015C000014300E0814311617047000000100240B8
:1015D000044A0029916901D0014300E081439161EF
:1015E0007047000000100240044A0029D16801D071
:1015F000014300E08143D1607047000000100240C9
:1016000010B500F02DF84FF48034204600F070F84B
:1016100000F0B8F8012822D1002000F05FF8002087
:1016200000F08CF8A01100F07FF80220FFF732F9EB
:101630001020FFF723F94FF4E011204600F08EF858
:10164000012000F085F8392000F028F80028FAD0B1
:10165000022000F08DF800F039F80828FBD110BD09
:101660000B48016841F0010101604168094A1140DD
:1016700041600168084A11400160016821F480213D
:101680000160416821F4FE014160002181607047E2
:10169000001002400000FFF8FFFFF6FE03460020A6
:1016A0005909094A01290AD002290AD0516A03F0CE
:1016B0001F02012393400B4200D0012070471168A4
:1016C000F5E7116AF3E700000010024002484068A5
:1016D00000F00C007047000000100240034A5168FF
:1016E00021F0F001014351607047000000100240FA
:1016F0000B490A6822F480320A600A6822F48022C8
:101700000A60B0F5803F07D0B0F5802F03D108689C
:1017100040F4A02008607047086840F48030F9E782
:101720000010024070470000034A516821F4E06154
:10173000014351607047000000100240034A5168A5
:1017400021F4605141EAC00050607047001002402F
:10175000014908667047000000004242034B5A6886
:10176000084322F47C121043586070470010024076
:10177000034A516821F003010143516070470000A2
:101780000010024030B50B4C40F2FF153120FFF73E
:1017900085FF20706068401C6060207810B9606828
:1017A000A842F3D13120FFF779FF002800D00120B3
:1017B00030BD00007000002070477047114BDFF80B
:1017C00048C0B3F90000B3F9021000FB00F201FBBE
:1017D0000122624598BF7047120E3D3AD2B2DFF83F
:1017E0002CC03CF8122050434FEAE07C00EB5C40F8
:1017F000C013188001FB02F0C11700EB5140C01369
:1018000058807047300000202196753DFC38000854
:1018100060B4144E03B2B6F9002003FB02F14FEAA4
:10182000E17C01EB5C41CD13B6F902104FEA204C8C
:101830000CFB01F0C6175943CB1700EB564001EBE8
:10184000534105EBE035CB1320460CFB02F165F369
:101850000F00CA1701EB5241C3EBE13160BC61F3E9
:101860001F4070470800002070477047704770475E
:101870007047000010B518210D48FEF7BBFD0D495B
:1018800008800D49488118210C48FEF7B3FD0C492A
:1018900008800C48017802291CBF0078032804D175
:1018A0000948016821F400410160012010BD0000D9
:1018B000002801401800002064000020002401409E
:1018C0001600002038000020082401400448016868
:1018D00041F40041016004210248FEF734BD0000DC
:1018E000082401400024014010B501460F4C104867
:1018F00001290CD00022012100F0D7FE206820F43D
:1019000080502060206840F40040206010BD2168B5
:1019100041F4805121600121044600F0D5FD2046AC
:101920000122BDE81040114600F0BFBE082401406E
:10193000002C01402DE9F04F04B243F6E4456C431E
:10194000051442F228366E4377423D190022344492
:10195000C4F1000405EBD57504EBD474C44E83B018
:101960009446134611466D104FEA64044DD5002C81
:10197000B8BF052703DB002FD4BF042703277770E8
:10198000BB4E002743F6E448377096F801B00614C2
:1019900042F22837774300B200FB08F907EB090051
:1019A0007E42404200EBD0704010371A42F2283E8F
:1019B000B14409EBD9794FEA69094FEAE07807EBBE
:1019C0000E0AA9EB0000CDF808904FEAEA7700EB89
:1019D0000E090197F71706EBD7374FEAE970AEEB20
:1019E00006060090DDF808E002987644C0174FEA3A
:1019F000E67ECDF808E0BBF1070F80F0D280DFE88B
:101A00000BF0D00D41779EE7FD00002CA8BF022708
:101A1000B5DA002FD4BF06270127B0E701980AEBFB
:101A2000903140F2654000EBA14082B204EBD83027
:101A300002EB60401FFA80FCACEB674083B240F6DB
:101A4000CA04A01A80B2F12800F20281A2EB0C01B4
:101A500089B2B1EB400F02D9A2F133000AE002F1E2
:101A6000F10081B2A14206D3814C0120207041F2E5
:101A70009310401A81B2804C7E482060804C7F4891
:101A800020608EE0009905EBD03009EB913240F2F6
:101A9000654101EBA2418AB204EBD83102EB61410E
:101AA000A2EB60401FFA81FC83B240F6CA04A4EBAB
:101AB0000C0080B2F12833D8ACEB020189B2B1EB53
:101AC000400F02D9ACF133000AE00CF1F10081B211
:101AD000A14206D3664C0120207041F29310401AB7
:101AE00081B2654C67482060654C6448206058E0CE
:101AF000029905EBD03006EB913240F2654101EBE3
:101B0000A2418AB2A2EB604083B203EB67401FFAA6
:101B100080FC40F6CA04A4EB0C0080B2F12802D984
:101B200040F6C901DDE7ACEB030189B2B1EB400F30
:101B3000C8D80CF1F10081B2A142D2D3CAE7019812
:101B40000AEB903140F2654000EBA14082B204EB19
:101B5000D83002EB60401FFA80FCACEB674083B2E8
:101B600040F6CA04E01A80B2F1284CD8A3EB0C016D
:101B700089B2B1EB400F02D9A3F133000AE003F1BF
:101B8000F10081B2A14206D3394C0120207041F20C
:101B90009310401A81B2384C3A482060384C3A4889
:101BA0002060334804783948002C04880CBF24F4A2
:101BB000005444F40054048035480280001DA0F80D
:101BC00000C0001D0380001D018003B0BDE8F08F40
:101BD000009905EBD03009EB913240F2654101EB01
:101BE000A2418AB204EBD83102EB6141A2EB604022
:101BF0001FFA81FC83B240F6CA0400E011E0E01A4B
:101C000080B2F12802D940F6C901C4E7991A89B215
:101C1000B1EB400FB0D803F1F10081B2A142BAD3C9
:101C2000B2E7029905EBD03006EB913240F2654104
:101C300001EBA2418AB2A2EB604083B203EB6740A2
:101C40001FFA80FC40F6CA04A01A80B2F12802D91B
:101C500040F6C9010FE7D11A89B2B1EB400F3FF648
:101C6000FBAE02F1F10081B2A142FFF404AFFBE64A
:101C70006400002000981600382401400038140049
:101C800038280140008C160000181400202C014058
:101C9000342C014070B5404E00224FF49061304624
:101CA000FEF7ACFB3D4C00254FF4E041A580E580FC
:101CB00025813046FEF77CFB01213046FEF76EFBA6
:101CC00003213046FEF7EDFB01231A46032130467F
:101CD000FEF7C2FB0123022206213046FEF7BCFBC1
:101CE000012303220E213046FEF7B6FB04213046C5
:101CF000FEF729FB01213046FEF7DBFB6580354608
:101D000004212846FEF761FB0028F9D0142128465B
:101D1000FEF770FBA18801EBD000A08018212846B7
:101D2000FEF768FBE18801EBD000E0801C2128462B
:101D3000FEF760FB218901EBD000208104212846B9
:101D4000FEF701FB01212846FEF7B3FB6088401C2B
:101D500080B260801028D3D302212846FEF7A1FB71
:101D600001231A4606212846FEF776FB01230222AC
:101D70000D212846FEF770FB00212846FEF718FBD0
:101D800001212846FEF70AFB2846BDE870400122E3
:101D90004FF4B861FEF732BB00240140640000201C
:101DA0002DE9F0014049414F0A464E789188D38889
:101DB0003F4D1289DFF8FCC047F6FF74072E24BFA1
:101DC000BDE8F0017047DFE806F01C2C5353040413
:101DD0002C003A68A1EB420111F5004FB8BF6CF33B
:101DE0000F0006DBB1F5004FACBF64F30F0061F3E9
:101DF0000F002968A3EB410111F5004F04DA6CF3E1
:101E00001F40BDE8F0017047B1F5004F04DB64F3FB
:101E10001F40BDE8F0017047BDE8F00161F31F40CD
:101E200070473968A3EB410111F5004FB8BF6CF35F
:101E30001F4006DBB1F5004FACBF64F31F4061F3F8
:101E40001F402968C2EB4101A1EB2041B1F5004FD1
:101E5000A2BF64F30F00BDE8F001704711F5004F19
:101E6000B4BF6CF30F0061F30F00BDE8F0017047E1
:101E70003B68A1EB430111F5004FB8BF6CF30F00B5
:101E800006DBB1F5004FACBF64F30F0061F30F0048
:101E90002968C2EB410102B2891AB1F5004FB6DAE6
:101EA00011F5004FB8DAAAE7640000203C24014095
:101EB0003C2801400080FFFF2DE9F04F93B04FF424
:101EC0000040FFF757FB01210846FFF75DFB0121AA
:101ED0003D20FFF77DFB01214802FFF779FB01213F
:101EE0008802FFF775FB0121C802FFF771FB09A803
:101EF000FEF713FE09A8FEF710FE4820ADF82400F7
:101F0000DFF8C0A200248DF8274009A95046FEF74B
:101F100087FD09A8FEF701FE3820ADF824008DF8F2
:101F2000274009A9A848FEF77BFD0125DFF89C9210
:101F3000ADF824508DF8274009A94846FEF770FDFA
:101F4000DFF88CB2584600F0DBFA0FA800F00EFD67
:101F5000ADF83C402020ADF83E0040F6CA00ADF898
:101F600040002F02ADF842708DF844500FA958463A
:101F700000F0DEFC684600F0A1FC6020ADF8000037
:101F80000420ADF8040040F20550ADF80600ADF8AD
:101F90000840ADF80C40ADF80250ADF80A40ADF87D
:101FA0000E406946584600F089FB6946584600F0E5
:101FB000BBFB6946584600F001FC09A8FEF7ADFDE1
:101FC0004FF4E060ADF8240018268DF827604FF03C
:101FD00003088DF8268009A95046FEF721FD4FF42D
:101FE0006040ADF824008DF827608DF8268009A99F
:101FF0004846FEF715FD09A8FEF78FFD684600F07C
:102000005DFC7020ADF80000ADF8044040F6C9005A
:10201000ADF80600ADF808400820ADF80A00ADF8AC
:102020000C40ADF80250ADF80E406946584600F03D
:1020300009FC0821584600F071FB0821584600F0C1
:10204000B3FB0821584600F0F7FB0821584600F082
:102050002BFCEE02ADF82C60A802ADF82E00ADF816
:1020600030701C20ADF832002803ADF83400ADF814
:102070003640ADF838400BA9584600F014FA20213C
:10208000584600F025FC8021584600F020FA012235
:102090008021584600F009FB0121584600F01AFA49
:1020A0000121584600F09FFA0121584600F00CFA31
:1020B00000220121584600F0F8FA0022102158466B
:1020C00000F0F3FADFF80C814046FEF749F9424F81
:1020D0003846FEF745F901214046FEF737F9012160
:1020E0003846FEF733F904A8FEF7F2F94FF46029F9
:1020F0004FF4A020CDE9069604908DF814508DF889
:1021000015408DF8205004A94046FEF781F904A837
:10211000FEF7DEF9CDE906968DF814508DF81540DE
:102120008DF8205004A93846FEF772F94046FEF7B4
:10213000CAF93846FEF7C7F94046FEF73FF90646AA
:102140003846FEF73BF90642F6D1FFF7A3FD022120
:102150003846FEF7A6F901231A4603213846FEF752
:102160007BF90123022208213846FEF775F9002188
:102170003846FEF71DF901213846FEF70FF94FF4F6
:10218000A060FEF763FE0AA8FEF774FE12208DF829
:1021900028008DF829508DF82A408DF82B500AA878
:1021A000FEF716FE19208DF828008DF829508DF8BD
:1021B0002A408DF82B500AA8FEF70AFE13B0BDE89E
:1021C000F08F00000008014000100140000C0140A9
:1021D000002C0140002401400028014070B53F4C14
:1021E000A08810B1A088401EA0803D490126087833
:1021F000401CC0B2087014282BD93A48027842F02B
:10220000020202700020087037480068C0F3C02046
:1022100006EB4001354882688068C2F3003241EA2B
:102220008201C0F3C02041EAC00131480268006861
:1022300002F0010241EA0211C0F3400041EA4010FD
:102240002C4980F03F0008702B48017841F00201D2
:102250000170E08810B1E088401EE080208910B154
:102260002089401E2081608808B1401E60806089FE
:10227000032510B1401E608102E06581FEF75AF926
:10228000A08910B1401EA08108E01C49A5810888E2
:10229000401C08801A480188491C0180E08910B15F
:1022A000401EE08100E0E681207818B12078401ED1
:1022B000207070BD257013480068C107124800786F
:1022C00005D00328F5D1BDE87040FEF7EFBA03282A
:1022D000EFD1BDE87040FEF757BB0000540000206E
:1022E00001000020030000200818014000100140F8
:1022F000081401400000002002000020040000201B
:102300000600002020000020380000204FF0E021CF
:102310000428086903D020F004000861704740F0E9
:102320000400FAE74FF0E021012804D0801C06D019
:10233000002088617047086940F0010002E00869E8
:1023400020F00100086170474FF0E0210028086983
:1023500002D040F0020001E020F002000861704766
:102360004FF0E021486170477047000003488088C3
:1023700008B1002070470120704700005400002081
:1023800010B50420FFF7C2FF48F6A040FFF7E8FFB2
:102390000120FFF7C7FF002203210448FEF770FD6C
:1023A000BDE810400120FFF7CFBF00009AC3020034
:1023B0000149888070470000540000204FF6FF71EB
:1023C00001EA4000014948807047000054000020A5
:1023D0000348408808B10020704701207047000082
:1023E0005400002070B5048C24F001040484058B93
:1023F000048C4FF6FF7606EA0313134325F0F3052A
:102400002B4324F002020A4342F0010103830184BA
:1024100070BDF0B5048C24F010040484078B068C86
:102420004FF6FF7404EA011527F4734704EA0331F9
:10243000394304EA02220A4326F02001294341F0ED
:10244000100102830184F0BD8021014800F03FB8F3
:10245000002C01407047704710B50121034800F07F
:1024600033F8BDE81040FFF731BA0000002C0140FE
:1024700010B50121880700F027F805480189A1F56A
:102480007F42FF3A02D00189491C018110BD000042
:10249000440000207047704770477047704770478E
:1024A00070477047704710B50A884B88CC881A432C
:1024B0008B8823431A430B891A434B8989891A4312
:1024C0000A43A0F8442010BDC94301827047C943A4
:1024D000018270470029018802D041F0010102E029
:1024E00040F2FE32114001807047002930F8441F4D
:1024F00002D041F4004101E0C1F30E0101807047B8
:102500002A4A10B5811A1315D41490423BD010DC1E
:10251000B0F1804F22D02649401826D098422BD0C7
:10252000A04241D101210820FFF746F800210820F0
:1025300036E099422ED0B1F58E3F0DD0B1F5923FE5
:1025400032D101214C032046FFF74EF82046BDE86A
:1025500010400021FFF748B80121F4E701210846A7
:10256000FFF72AF8002101201AE001210220FFF7DD
:1025700023F80021022013E001210420FFF71CF8BA
:10258000002104200CE001211020FFF715F80021A4
:10259000102005E001212020FFF70EF80021202067
:1025A000BDE81040FFF708B810BD00000010004063
:1025B00000FCFFBF70B50589048B068C25F007056C
:1025C0000D434FF6FC410C4040F201110C434FF615
:1025D000FF7101EA031126F0220611433143058100
:1025E0000483018470BD81827047808C70472DE91F
:1025F000F0410C46054608884988A288238900B323
:10260000042827D00828288C4FF6FF762BD020F4FA
:1026100080502884AF8B288C06EA0131120227F4FF
:10262000734642EA0332324320F40050084340F438
:102630008050AA832884E1882846BDE8F04100F054
:102640006BB92846FFF7CEFEE1882846BDE8F04189
:1026500000F046B92846FFF7DCFEE1882846BDE8D1
:10266000F04100F045B920F480702884AF8B288CAD
:1026700006EA031327F0F30713433B4306EA01215D
:1026800020F40070084340F48070AB832884E18814
:102690002846BDE8F04100F037B9002101804180B3
:1026A00001228280C18001817047002A828901D085
:1026B0000A4300E08A4382817047000030B5028CF3
:1026C00022F001020284028C8388048B22F0020231
:1026D00024F070050C882C430D8915434A882A4341
:1026E000CD8885860B4DA84202D00B4DA8420DD156
:1026F00022F008054A8923F403432A4322F0040503
:102700008A882A438D891D43CB892B438380048388
:10271000028430BD002C014000340140028B22F0C5
:1027200008020A430283704770B5028C22F010023F
:102730000284028C8388048B0D8824F4E0464FF6D3
:10274000FF7404EA052535430E8922F0200204EACD
:10275000061616434A8804EA02123243CE880687D8
:102760000F4EB04202D00F4EB04215D122F080067B
:102770004A8923F40C4304EA0212324322F0400651
:102780008A8804EA021232438E89C98904EA8606DD
:102790001E4304EA8103334383800583028470BDB2
:1027A000002C014000340140028B4FF6FF7322F4ED
:1027B000006203EA012111430183704770B5028C66
:1027C00022F480720284028C8388848B0D8824F02A
:1027D000700425430E894FF6FF7422F4007204EA58
:1027E000062616434A8804EA02223243CE888687A8
:1027F0000F4EB04202D00F4EB04215D122F4006607
:102800004A8923F4304304EA0222324322F48066E8
:102810008A8804EA022232438E89C98904EA0616AC
:102820001E4304EA0113334383808583028470BD11
:10283000002C014000340140828B22F008020A4340
:102840008283704770B5028C22F480520284058C1A
:102850008288838B0C8823F4E0464FF6FF7303EAEB
:10286000042434430E8925F4005503EA06362E432A
:102870004D8803EA05353543CE88A0F84060084E00
:10288000B04202D0074EB04205D18989C2F30D068D
:1028900003EA8112324382808483058470BD000084
:1028A000002C014000340140828B4FF6FF7322F46C
:1028B000006203EA012111438183704700210180F6
:1028C00041808180C180018141818181C1817047C6
:1028D000828822F07002828082880A438280704758
:1028E000028B22F00C020283028B0A4302837047A0
:1028F000028B22F440620283028B4FF6FF7303EADD
:1029000001210A4302837047828B22F00C028283EA
:10291000828B0A4382837047828B22F440628283D7
:10292000828B4FF6FF7303EA01210A4382837047CB
:10293000028802F08F020280CA884B881A430388FB
:102940001A4302808A8882850A880285012282824F
:10295000044A904202D0044A904201D1097A018689
:1029600070470000002C0140003401404FF6FF7119
:10297000818000210180C180418001727047000088
:1029800000F50042920900F5004112F44073C1F3D2
:102990008711DFF860C0C1F1FF0217D0B3F5807F67
:1029A0001DD0B3F5007F0AD0B3F5407F18BF704744
:1029B0003CF812203CF8111062F31F400DE03CF887
:1029C000111061F31F403CF812100FE03CF8111099
:1029D000494261F31F403CF81210494206E03CF8BE
:1029E00012203CF81110524262F31F4061F30F00B5
:1029F0007047000082390008704770477047704781
:102A000070B50B4C40F225552946204600F018F8C9
:102A100038B940F227752946204600F011F8002801
:102A200005D029462046BDE8704000F003B870BDCF
:102A3000004800400A0A01219140C94301807047C3
:102A400070B501F01F0501260024C1F3421306FAF8
:102A500005F2012B0FD0022B0FD0838A4FEA1121F0
:102A60000088134206FA01F600EA060001D000B120
:102A70000124204670BD8389F0E7038AEEE77047A2
:102A800070477047FEE7704702E008C8121F08C190
:102A9000002AFAD170477047002001E001C1121FDF
:102AA000002AFBD17047000070B5144C0020144D73
:102AB000E07001212846FEF725F808B90220E070F1
:102AC0004FF400512846FEF71DF808B90120E070C8
:102AD0004FF480412846FEF715F808B90320E0704E
:102AE0004FF400412846FEF70DF808B90420E070C5
:102AF00001210448FEF706F8E07870BD7800002058
:102B000000100140001401402DE9F84FFFF7CCFF01
:102B1000FE4E012830716FD1FEF7DAF90022012351
:102B200011462420FEF7F2FA01231A46002136202E
:102B3000FEF7ECFA0123022200214820FEF7E6FA14
:102B40000123032200215A20FEF7E0FA012312227A
:102B500002210020FEF7DAFA0123132202211020BD
:102B6000FEF7D4FA0123162202213620FEF7CEFA10
:102B70000123172202214620FEF7C8FA012318225A
:102B800004210020FEF7C2FA01231922042110209B
:102B9000FEF7BCFA01231A2204213620FEF7B6FA0A
:102BA00001231B2204214620FEF7B0FA002506F17E
:102BB00011074FF0100B012406F10E08DFF850A3A7
:102BC0009AF8000008285FD2DFE800F05E045E0E8D
:102BD000175E2C36FEF780F840F6B830FFF7EEFBB4
:102BE00002208AF800004FE0FDF74AFD01284BD192
:102BF0000820FEF7B3F847E0FDE30021C548FFF7E2
:102C000074FC06208AF800000020FEF76DFEC24822
:102C1000458005800068FEF78DFE4FF4FA60FFF7EF
:102C2000C7FB31E0FFF7A2FB01282DD1FDF73EFDE8
:102C300050BB8AF8005027E0FDF7FEFF012823D1A2
:102C4000B6480168C90702D0B5490D7002E0B44921
:102C50000C220A708AF80050016841F002010160FC
:102C600098F8001079B998F8010001280BD10123D8
:102C70001C2206215A20FEF749FA01231D220621B3
:102C80006A20FEF743FA7470FFF70EFFDFF89492A4
:102C900030717289B9F80010914200D810B9F571FD
:102CA000A9F800500022012311462420FEF72EFA35
:102CB00001231A4600213620FEF728FA01230222BA
:102CC00000214820FEF722FA0123032200215A2086
:102CD000FEF71CFA98F80110404659B101297FF41B
:102CE0006DAF98F80000052879D2DFE800F0C5FE46
:102CF000FDFCFB00317921B1012904D0022909D062
:102D00000FE0F5710DE0017802290AD8F27942B995
:102D1000491C04E0017821B1F27912B9491E017011
:102D2000F47198F8000030B1012818D0022857D06B
:102D3000032844D174E00023122202211846FEF732
:102D4000E5F90023132202211020FEF7DFF9012309
:102D5000162202213620FEF7D9F9012312E00123C1
:102D6000122202210020FEF7D1F9012313220221B1
:102D70001020FEF7CBF90023162202213620FEF7A1
:102D8000C5F90023172202214620FEF7BFF90123CF
:102D9000182204210020FEF7B9F901231922042189
:102DA0001020FEF7B3F901231A2204213620FEF782
:102DB000ADF901231B2204214620FEF7A7F9307943
:102DC00003288CD188F80140F471FEF781F8A9F846
:102DD000005088F802504FF47A707081EEE616E2E7
:102DE0000123122202210020FEF790F90123132271
:102DF00002211020FEF78AF9012316220221362033
:102E0000FEF784F90123172202214620FEF77EF9FE
:102E10000023182204211846FEF778F90023BDE7A5
:102E20000123122202210020FEF770F90123132250
:102E300002211020FEF76AF9012316220221362012
:102E4000FEF764F90123172202214620FEF75EF9FE
:102E50000123182204210020FEF758F9012319222A
:102E600004211020FEF752F900231A2204213620F3
:102E7000FEF74CF900239DE7B9F8001072899142E2
:102E800001D8317911B9F571A9F80050B07868B35B
:102E9000254941F204020888C00808801B49A0F5B2
:102EA0007A7014319042488000DD4A808946B1F939
:102EB00002104FF46170814201DAA9F80200012387
:102EC0000C2202210020FEF721F901230D2202210C
:102ED0001020FEF71BF92022012302211046FEF7E5
:102EE00015F904E093E230E292E12DE13AE00123AA
:102EF000212202213020FEF709F9B9F9022006202B
:102F000092FBF0F0094B188012E0000078000020DE
:102F100038000020002C0140340000202000002058
:102F200043000020040000206E0000203E0000202E
:102F30004FF47A70A9F80000042302215A20CDF83A
:102F400000B0FEF777F93079032862D0F0B3B0898A
:102F5000401C80B2B081B0F5487F71D932207081B9
:102F6000B5816DE03079012802D0022806D00CE04E
:102F7000F07950B9FE4908880A3004E0F07920B9A8
:102F8000FB4908880A380880F47101230C220221C9
:102F90000020FEF7BBF801230D2202211020FEF7CE
:102FA000B5F801230E2202212020FEF7AFF80123FD
:102FB0000F2202213020FEF7A9F8DFF8B4934FF07A
:102FC0000103B9F9000000280DDA00E035E0E9A2BC
:102FD00002215020FEF75FF9B9F80000CDF800B0EB
:102FE000404282B208E0E4A202215020FEF753F9E9
:102FF000CDF800B0B9F90020042302215A20FEF7D1
:1030000019F9B9F90010062091FBF0F0DB490880AE
:1030100099E7F07900289AD1F471707840B1757011
:103020008AF80040D648016841F0010101608EE74E
:10303000747004208AF8000089E74FF4FA707081F8
:1030400070784FF00103E8B31C2206215A20FEF7E6
:103050005DF801231D2206216A20FEF757F801239F
:10306000102204210020FEF751F80123112204212F
:103070001020FEF74BF801230E2204212020FEF73A
:1030800045F801230F2204213020FEF73FF80123E9
:10309000122206210020FEF739F80123132206210F
:1030A0001020FEF733F80123142206212020FEF71A
:1030B0002DF80123152206213020FEF727F8B1480C
:1030C000018800E01DE0C82939D90580A848B0F979
:1030D000000000281DDA0123A6A204215020FEF7DB
:1030E000DAF8FDF7E3FAA0EB80004FF6FF7101EA92
:1030F0004002042319465A20CDF800B0FEF79AF892
:1031000019E0122206215A20FEF700F801231322AB
:10311000A1E7FDF7CBFA00EB40004200042319467B
:103120005A20CDF800B0FEF785F8012392A20421C1
:103130005020FEF7B0F802219348FDF7EAFC022187
:103140009148FDF7E8FCAAE2B9F8001072899142B3
:1031500001D8317911B9F571A9F8005030790128F9
:1031600002D0022808D010E098F8021069B9F1796D
:1031700059B988F8024007E098F8020028B1F279BE
:103180001AB9401E88F80200F47198F8020058B18C
:10319000012823D00228D6D0FDF79AFE0021022272
:1031A0000846FDF7E7FF7AE200231E2202211846B7
:1031B000FDF7ACFF00231F2202211020FDF7A6FF20
:1031C0000123202202213620FDF7A0FF0123212226
:1031D00002214620FDF79AFFB57060E201231E220E
:1031E00002210020FDF792FF01231F22022110205F
:1031F000FDF78CFF0023202202213620FDF786FFF9
:103200000023212202214620FDF780FFB47046E210
:10321000B9F800107289914201D8317911B9F5716C
:10322000A9F800503079012802D0022808D010E017
:1032300098F8020002280CD2F27952B9401C05E03D
:1032400098F8020028B1F2791AB9401E88F80200F5
:10325000F47198F8020080B1012822D0022845D0EC
:10326000032806D0FDF734FE002103220846FDF7AF
:1032700081FF3079032859D011E200230E22022168
:103280001846FDF743FF00230F2202211020FDF70F
:103290003DFF0123222202212420FDF737FF0123D5
:1032A00012E001230E2202210020FDF72FFF01234F
:1032B0000F2202211020FDF729FF002322220221E4
:1032C0002420FDF723FF0023232202213420FDF7D1
:1032D0001DFF0123242202214820FDF717FF0123AF
:1032E000252202215820FDF711FFC2E701230E22FB
:1032F00002210020FDF70AFF01230F2202211020E6
:10330000FDF704FF0123222202212420FDF7FEFE07
:103310000123232202213420FDF7F8FE002324227A
:1033200002214820FDF7F2FE0023D9E7F0790028BA
:103330007FF454AD98F800100229F9D1042188F8DF
:103340000010FDF7C5FDF471A9E10022012311462B
:103350002420FDF7DBFE01231A4600213620FDF76D
:10336000D5FE0123022200214820FDF7CFFE0DE00B
:103370008C0000202D000000200000003E000020F6
:103380002000002006000020001401400123032239
:1033900000215A20FDF7BAFE012308220221242031
:1033A000FDF7B4FE0123092202213620FDF7AEFE0F
:1033B00001230A2202214820FDF7A8FE01230B2247
:1033C00002215A20FDF7A2FE0123262204212420F7
:1033D000FDF79CFE0123262204213620FDF796FEF0
:1033E0000123272204214820FDF790FE01232822F3
:1033F00004215A2000E01DE2FDF788FE3079042800
:1034000096D1F079002893D188F8015044E198F8DA
:10341000020020B101287DD002287CD15DE1FE4967
:10342000DFF8F8A30A88AAF800208A88AAF8022000
:103430000A8BAAF80420B9F8002073899A4201D8AF
:1034400032792AB9F571A9F800504FF4967070815D
:103450003079012804D002280FD0032818D019E0B1
:10346000F079B8B93A7841F288333AF812009842C4
:1034700001D20A3009E0F4710CE0F07950B93A78E1
:103480003AF812000028F6D00A382AF81200F2E7BB
:10349000F07930B1387860B1012815D0022828D1F0
:1034A0004DE03878012802D8401C3870E3E73D70C1
:1034B000E1E7BAF8000008800023D9A20221202009
:1034C000FDF7E9FE012309E0BAF802008880012334
:1034D000D3A202212020FDF7DEFE0023D1A2042189
:1034E0002020FDF7D8FE0123CFA206212020FDF7E2
:1034F000D2FE01230E2202210020FDF707FE012348
:103500000F2204210020FDF701FECDF800B0BAF82B
:10351000002001E024E0B5E0042302213C20FDF777
:1035200089FECDF800B00423BAF8022019463C20E9
:10353000FDF780FECDF800B0BAF804209DE0BAF89F
:10354000040008830123B6A202212020FDF7A3FE78
:103550000123B4A204212020FDF79DFE0023C3E730
:10356000B249DFF8B8A20A88AAF806208A88AAF821
:1035700008200A8BAAF80A20B9F8002073899A4219
:1035800001D832792AB9F571A9F800504FF4967034
:1035900070813079012804D0022810D0032819D076
:1035A0001AE0F079C0B97A7841F288330AEB420226
:1035B000D088984201D20A300AE0F4710CE0F07928
:1035C00050B97A780AEB4202D0880028F5D00A3840
:1035D000D080F2E7F07930B1787860B1012815D069
:1035E000022828D168E07878012802D8401C787039
:1035F000E3E77D70E1E7BAF806000880002388A2BF
:1036000002212020FDF747FE012309E0BAF8080057
:103610008880012382A202212020FDF73CFE0023A6
:1036200080A204212020FDF736FE01237EA2062180
:103630002020FDF730FE0123222202210020FDF789
:1036400065FD0123232204210020FDF75FFDCDF855
:1036500000B0BAF80620042302213C20FDF7EAFD61
:10366000CDF800B00423BAF8082019463C20FDF735
:10367000E1FDCDF800B0BAF80A20042306213C2071
:10368000FDF7D8FD307904287FF498AAF079002856
:10369000FAD1022188F80010F471FDF719FC307995
:1036A0000428F1D1F0790028EED188F80150F471A6
:1036B000FDF70EFCFFF782BABAF80A00088301236F
:1036C00057A202212020FDF7E6FD012355A2042187
:1036D0002020FDF7E0FD0023A8E75549DFF83CA1D5
:1036E0000A88AAF80C208A88AAF80E200A8BAAF861
:1036F0001020B9F8002073899A4201D832792AB98A
:10370000F571A9F800504FF4967070813079012856
:1037100004D0022810D0032819D01AE0F079C0B9DB
:10372000BA7841F288330AEB42029089984201D27A
:103730000A300AE0F4710CE0F07950B9BA780AEB7B
:10374000420290890028F5D00A389081F2E7F0799A
:1037500030B1B87860B1012815D0022828D14AE0EC
:10376000B878012802D8401CB870E3E7BD70E1E7E3
:10377000BAF80C000880002329A202212020FDF7BE
:103780008AFD012309E0BAF80E008880012324A2F3
:1037900002212020FDF77FFD002322A2042120200A
:1037A000FDF779FD012320A206212020FDF773FDFE
:1037B0000123242202210020FDF7A8FC0123252259
:1037C00004210020FDF7A2FCCDF800B0BAF80C20CF
:1037D000042302213C20FDF72DFDCDF800B0042389
:1037E000BAF80E2019463C20FDF724FDCDF800B0B4
:1037F000BAF8102041E7BAF810000883012308A2A4
:1038000002212020FDF747FD012306A204212020EC
:10381000FDF741FD0023C6E7100B0020400B002000
:1038200050203A0049203A0044203A00F00A002093
:10383000D00A0020BDE8F88FFDF7E2FEFDF7B4F8EE
:10384000FEF73AFBFCF738FFFEF79AFD084A0949F4
:103850000948FDF7BFFDFDF773F9FDF767FAFDF7BE
:10386000A1FAFDF753FB00F011F8FFF74DF9FCE763
:10387000100B0020D00A0020F00A0020034601208F
:1038800000E05843491EC9B2FBD2704770B51A4CCC
:10389000242600252670A571657101236279A1791E
:1038A0002078FDF733FC20785A2802D2123020709D
:1038B00000E026706079032819D0042817D0052865
:1038C00015D0062813D0072813D0082811D00928AE
:1038D0000FD00A280DD0A571401CC0B260710B2812
:1038E000DBD94FF47A7020810120607070BD022115
:1038F00000E00421A171EFE778000020EE7E687EF1
:10390000607D5F7C637B6E7A7E799478AF77CF76CB
:10391000F4751D754B747D73187351728D71CE7073
:1039200012705A6FA56EF46D466D9B6CF36B4E6B07
:10393000AD6A5D6ABF6924698C68F6676367D266A1
:103940004466B7652D65A66420649C635B63DB6297
:103950005C62DF616461EB607460FE5F8A5F175FC9
:10396000A65E375EC95D5D5D285DBD5C555CED5B47
:10397000875B235BBF5A5D5AFC599D593E59E158FC
:1039800085580000C90092015B022403ED03B604D0
:103990007F0548061107D907A2086A09330AFB0AFE
:1039A000C40B8C0C540D1C0EE30EAB0F72103A11AD
:1039B0000112C8128F1355141C15E215A8166E17A4
:1039C0003318F918BE19821A471B0B1CCF1C931D04
:1039D000571E1A1FDD1F9F2061212322E522A623E7
:1039E00067242825E825A82667272628E528A3296F
:1039F000612A1F2BDC2B992C552D112ECC2E872FB5
:103A00004130FB30B5316E322633DF3396344D35DD
:103A10000436BA366F372438D9388C39403AF23AFE
:103A2000A53B563C073DB83D683E173FC53F734038
:103A30002141CE417A422543D0437A442445CD45A5
:103A400075461C47C34769480F49B449584AFB4A61
:103A50009D4B3F4CE04C814D204EBF4E5D4FFB4F88
:103A600097503351CE51685202539B533254C9542C
:103A70006055F5558A561D57B0574258D35864596A
:103A8000F359825A0F5B9C5B285CB35C3E5DC75D5B
:103A90004F5ED75E5D5FE35F6860EB606E61F06113
:103AA0007162F1627063EE636C64E8646365DD65A6
:103AB0005666CF664667BC673268A66819698B6927
:103AC000FD696D6ADC6A4A6BB76B236C8E6CF86CAF
:103AD000616DC96D306E966EFB6E5E6FC16F227048
:103AE0008370E27040719D71F9715472AE72077308
:103AF0005E73B5730A745F74B27404755575A575F9
:103B0000F37541768D76D87622776B77B377FA772F
:103B10003F788478C77809794A798979C879057AAC
:103B2000417A7C7AB67AEE7A267B5C7B917BC57B88
:103B3000F87B297C597C887CB67CE37C0E7D397DC2
:103B4000627D897DB07DD57DFA7D1D7E3E7E5F7E66
:103B50007E7E9C7EB97ED57EEF7E097F217F377F7A
:103B60004D7F617F747F867F977FA67FB47FC17F03
:103B7000CD7FD87FE17FE97FF07FF57FF97FFD7F03
:103B8000FE7F0000000000000000000000000000B8
:103B90000000000000F800000000000000333000CA
:103BA000000000100C06100C0600000000000000D1
:103BB000000040C07840C0784000043F04043F0447
:103BC0000400007088FC08300000001820FF211E4F
:103BD0000000F008F000E018000000211C031E2186
:103BE0001E0000F00888700000001E212324192701
:103BF000211010160E000000000000000000000060
:103C00000000000000E01804020000000007182077
:103C1000400000020418E0000000004020180700E7
:103C20000000404080F0804040000202010F01028D
:103C30000200000000F0000000000101011F01016E
:103C40000100000000000000000080B070000000D3
:103C5000000000000000000000000001010101015F
:103C600001010000000000000000003030000000F2
:103C700000000000000080601804006018060100C9
:103C8000000000E010080810E000000F10202010D5
:103C90000F00001010F8000000000020203F20203E
:103CA00000000070080808887000003028242221D5
:103CB000300000300888884830000018202020118B
:103CC0000E000000C02010F8000000070424243F6C
:103CD000240000F808888808080000192120201115
:103CE0000E0000E0108888180000000F112020113D
:103CF0000E0000380808C83808000000003F000027
:103D000000000070880808887000001C2221212211
:103D10001C0000E010080810E00000003122221111
:103D20000F00000000C0C0000000000000303000A4
:103D30000000000000800000000000008060000023
:103D4000000000008040201008000001020408105C
:103D5000200040404040404040000404040404046B
:103D60000400000810204080000000201008040219
:103D70000100007048080808F0000000003036011B
:103D80000000C030C828E810E000071827242314DA
:103D90000B000000C038E0000000203C2302022796
:103DA000382008F8888888700000203F20202011E3
:103DB0000E00C0300808080838000718202020101E
:103DC000080008F808080810E000203F2020201014
:103DD0000F0008F88888E8081000203F20202320E2
:103DE000180008F88888E8081000203F2000030029
:103DF0000000C03008080838000007182020221EE4
:103E0000020008F808000008F808203F21010121FD
:103E10003F20000808F8080800000020203F20206C
:103E2000000000000808F8080800C08080807F00BB
:103E3000000008F888C028180800203F2001263814
:103E4000200008F8080000000000203F202020206B
:103E5000300008F8F800F8F80800203F003F003F65
:103E6000200008F830C00008F808203F200007189C
:103E70003F00E01008080810E0000F10202020107C
:103E80000F0008F808080808F000203F2101010190
:103E90000000E01008080810E0000F182424385033
:103EA0004F0008F8888888887000203F2000030CA5
:103EB00030200070880808083800003820212122AE
:103EC0001C00180808F8080818000000203F20000F
:103ED000000008F808000008F808001F2020202033
:103EE0001F000878880000C83808000007380E0155
:103EF0000000F80800F80008F800033C0700073C41
:103F00000300081868808068180820302C03032CF0
:103F100030200838C800C83808000000203F2000C2
:103F2000000010080808C838080020382621202082
:103F30001800000000FE020202000000007F404066
:103F40004000000C30C000000000000000010638F6
:103F5000C00000020202FE000000004040407F005E
:103F60000000000004020202040000000000000043
:103F70000000000000000000000080808080808041
:103F80008080000202040000000000000000000029
:103F9000000000008080808000000019242222227E
:103FA0003F2008F8008080000000003F1120201111
:103FB0000E000000008080800000000E11202020F4
:103FC0001100000000808088F800000E11202010F1
:103FD0003F200000808080800000001F22222222DB
:103FE0001300008080F0888888180020203F20205F
:103FF00000000000808080808000006B9494949387
:10400000600008F8008080800000203F2100002030
:104010003F2000809898000000000020203F2020D2
:104020000000000000809898000000C08080807F21
:10403000000008F8000080808000203F24022D301E
:104040002000000808F8000000000020203F202089
:1040500000008080808080808000203F20003F2002
:10406000003F8080008080800000203F21000020F1
:104070003F200000808080800000001F2020202042
:104080001F00808000808000000080FFA1202011A0
:104090000E000000008080808000000E112020A013
:1040A000FF80808080008080800020203F212000D1
:1040B00001000000808080808000003324242424BC
:1040C0001900008080E0808000000000001F202098
:1040D00000008080000000808000001F2020201051
:1040E0003F20808080000080808000010E30080624
:1040F000010080800080008080800F300C030C3035
:104100000F0000808000808080000020312E0E3162
:104110002000808080000080808080818E70180662
:10412000010000808080808080000021302C2221CE
:10413000300000000000807C020200000000003F10
:10414000404000000000FF00000000000000FF00F1
:1041500000000002027C800000000040403F0000A0
:10416000000000060101020204040000000000003B
:10417000000000009441000800000020D00A000068
:104180007202000804460008D00A002088040000DB
:10419000982A0008021D00010321030001021601F4
:1041A00034120302021B01607004E803F43E12E8BB
:1041B00039000F1002FE9292FE0200101116F01448
:1041C000131030001010101F0808FF048141310D3A
:1041D000030D31418120F00F1010FF9020984828E6
:1041E000090E2848A818D0100C0242817F004040D8
:1041F0004242427E040210406020099453321E3233
:104200005210001F02137EB343FF49010212FFD078
:1042100000101108CC4A49484ACC18007F8888848D
:1042200082E03E000915121252927F00007E20109B
:104230000400F8880122FF050613F832150113085F
:10424000085EF40688889F80F0503380820104095C
:1042500014E2A2928A868280807504041640807FD0
:1042600090100A2424A4FEA3220022CCAA0113E069
:1042700020070601FF00010401040513FF020202EA
:10428000805004109008C3F2084004104F04448288
:104290007F01808040432C10284681800010091047
:1042A00010D0FF901000FE9C0212FEC0130403D831
:1042B000140483601F060805103F40407820100654
:1042C000FA8282FE8040000610126282621AE008C2
:1042D0000F1008184884443F007F50484641465814
:1042E0004024084044C44444444006031010109F36
:1042F00008101200103C131014B840300E0140801A
:10430000403F5F63FE22010113C1600400FF4201D0
:10431000091281450012203E12E2480614200028AE
:1043200004130C03030F10010620031D1B03080CCC
:1043300012CC0004F49494FF9494F4043C0C0D10FB
:10434000201F20484442415F414244484003200B23
:104350000000FC242424FC25262408011041080E1A
:104360001140308F80844C55252525554C80A02840
:104370000A100C048414640506F4620B10140C403B
:10438000000E118484444724140C070C1424448424
:10439000A1040618FE225A86000004071D00FF042F
:1043A00008071000153F0314A2623F3500140444AF
:1043B0004E45E504041145464C002C061088C433D4
:1043C0000060040E13C260044F020158030D1783EE
:1043D000031006083000FF200111050711222CC030
:1043E0002806040201FF80400C05110618204040F9
:1043F000032521240424548F1E05121F140641395D
:1044000000003CE50808144C404070040931400CA1
:104410000A1514E4AFA4A4A4AFE4044003040A11F1
:10442000894B2A1A0E1A2A4B88C0231090013D008E
:10443000030F111116C1051C052060203F1B03044A
:10444000081400030C102040F8801C0440A09EC4F7
:10445000040404129EA020814C05003F90883F0474
:104460000E1241E00410081715D55557557D040C60
:104470000411D51517FB04400540407F5501127FFC
:104480000C0D12420311B70C051310F010107F062B
:104490001C08008181414121117D060C0712112168
:1044A0004141818140032D9B033EFEA50301136022
:1044B0000D1C80050C0E128060F807000474545522
:1044C0005654547480031DBF030C0B1303010545A0
:1044D000857D050505019E072D150612FFE80113D0
:1044E000DE250051040113225D40070C0914888861
:1044F000E98E8888A89840070409110080844B2819
:104500001028477F080F104030EF242480E49C10CF
:104510005454FF547C0008105101017F215126188A
:10452000274445455F454544801D00080C0713009E
:10453000F800020418C10641C00C0A503F10884020
:10454000300C0B30C080060C0E1060028C004464EE
:10455000544D46445464C400051C0804047E018084
:10456000403EE7051D03080E118020081D7A062C29
:1045700007F2929292021242030D10E0072C0640BD
:104580003F80601FBD045107ED50090C0E1184E4FB
:104590005CC40008C8398E0808CC3B800711FB407A
:1045A000073F00635A46E1050D13420608081398B9
:1045B000A44744A4540C7E080D1300818989444407
:1045C0004A31211109057E2DFB075DC00702110844
:1045D0007F1DF40518044142243D0C04132442417C
:1045E00000063D3A040C0811404848487F48C8601E
:1045F000063D40080C09110002020A1242827F8027
:0446000008000000AE
:0400000508000131BD
:00000001FF
